{
  "contractName": "Table",
  "abi": [
    {
      "constant": false,
      "inputs": [
        {
          "internalType": "uint256",
          "name": "_num",
          "type": "uint256"
        }
      ],
      "name": "setNumber",
      "outputs": [],
      "payable": false,
      "stateMutability": "nonpayable",
      "type": "function"
    },
    {
      "constant": false,
      "inputs": [],
      "name": "getTable",
      "outputs": [
        {
          "internalType": "uint256[]",
          "name": "",
          "type": "uint256[]"
        }
      ],
      "payable": false,
      "stateMutability": "nonpayable",
      "type": "function"
    },
    {
      "constant": true,
      "inputs": [],
      "name": "test",
      "outputs": [
        {
          "internalType": "string",
          "name": "_test",
          "type": "string"
        }
      ],
      "payable": false,
      "stateMutability": "pure",
      "type": "function"
    }
  ],
  "bytecode": "0x608060405234801561001057600080fd5b50610283806100206000396000f3fe608060405234801561001057600080fd5b50600436106100415760003560e01c80633fb5c1cb14610046578063f8a8fd6d14610074578063fb6391ab146100f7575b600080fd5b6100726004803603602081101561005c57600080fd5b8101908080359060200190929190505050610156565b005b61007c610160565b6040518080602001828103825283818151815260200191508051906020019080838360005b838110156100bc5780820151818401526020810190506100a1565b50505050905090810190601f1680156100e95780820380516001836020036101000a031916815260200191505b509250505060405180910390f35b6100ff6101a0565b6040518080602001828103825283818151815260200191508051906020019060200280838360005b83811015610142578082015181840152602081019050610127565b505050509050019250505060405180910390f35b8060008190555050565b60606040518060400160405280601081526020017f74657374207375636365737366756c6c00000000000000000000000000000000815250905080905090565b60606000600190505b600a81116101f75780600054026001819055506002600154908060018154018082558091505090600182039060005260206000200160009091929091909150555080806001019150506101a9565b50600280548060200260200160405190810160405280929190818152602001828054801561024457602002820191906000526020600020905b815481526020019060010190808311610230575b505050505090509056fea265627a7a72315820b104b033847d595748ea1e09812a34788ebdcae4700b36fba338a5c2945996ad64736f6c63430005100032",
  "source": "// SPDX-License-Identifier: MIT\r\npragma solidity >=0.4.22 <0.9.0;\r\n\r\ncontract Table {\r\n    uint num;\r\n    uint temp;\r\n    uint[] values;\r\n\r\n    function setNumber(uint256 _num) public {\r\n        num = _num;\r\n    }\r\n\r\n    function getTable() public returns (uint[] memory ) {\r\n\r\n        for(uint i=1; i<=10;i++){\r\n            temp = num*i;\r\n            values.push(temp);\r\n        }\r\n        return (values);\r\n    }\r\n\r\n    function test() public pure returns(string memory _test){\r\n        _test = \"test successfull\";\r\n\r\n        return _test;\r\n    }\r\n}\r\n",
  "sourcePath": "D:/BlockChain Project/TableGenerater/Back_end/contracts/tableContract.sol",
  "compiler": {
    "name": "solc",
    "version": "0.5.16+commit.9c3226ce.Emscripten.clang"
  },
  "schemaVersion": "3.4.0",
  "updatedAt": "2021-06-21T20:25:42.148Z",
  "networkType": "ethereum",
  "devdoc": {
    "methods": {}
  },
  "userdoc": {
    "methods": {}
  }
}